{
  "contractName": "SkillsForgeContract",
  "abi": [
    {
      "anonymous": false,
      "inputs": [
        {
          "indexed": true,
          "internalType": "address",
          "name": "account",
          "type": "address"
        },
        {
          "indexed": false,
          "internalType": "uint256",
          "name": "amount",
          "type": "uint256"
        }
      ],
      "name": "Deposit",
      "type": "event"
    },
    {
      "anonymous": false,
      "inputs": [
        {
          "indexed": true,
          "internalType": "address",
          "name": "account",
          "type": "address"
        },
        {
          "indexed": false,
          "internalType": "uint256",
          "name": "amount",
          "type": "uint256"
        }
      ],
      "name": "Withdrawal",
      "type": "event"
    },
    {
      "inputs": [
        {
          "internalType": "address",
          "name": "",
          "type": "address"
        }
      ],
      "name": "balances",
      "outputs": [
        {
          "internalType": "uint256",
          "name": "",
          "type": "uint256"
        }
      ],
      "stateMutability": "view",
      "type": "function",
      "constant": true
    },
    {
      "inputs": [],
      "name": "deposit",
      "outputs": [],
      "stateMutability": "payable",
      "type": "function",
      "payable": true
    },
    {
      "inputs": [
        {
          "internalType": "uint256",
          "name": "_amount",
          "type": "uint256"
        }
      ],
      "name": "withdraw",
      "outputs": [],
      "stateMutability": "nonpayable",
      "type": "function"
    },
    {
      "inputs": [],
      "name": "getBalance",
      "outputs": [
        {
          "internalType": "uint256",
          "name": "",
          "type": "uint256"
        }
      ],
      "stateMutability": "view",
      "type": "function",
      "constant": true
    }
  ],
  "bytecode": "0x608060405234801561001057600080fd5b506106cb806100206000396000f3fe60806040526004361061003f5760003560e01c806312065fe01461004457806327e235e31461006f5780632e1a7d4d146100ac578063d0e30db0146100d5575b600080fd5b34801561005057600080fd5b506100596100df565b60405161006691906103ef565b60405180910390f35b34801561007b57600080fd5b506100966004803603810190610091919061046d565b610125565b6040516100a391906103ef565b60405180910390f35b3480156100b857600080fd5b506100d360048036038101906100ce91906104c6565b61013d565b005b6100dd6102ee565b005b60008060003373ffffffffffffffffffffffffffffffffffffffff1673ffffffffffffffffffffffffffffffffffffffff16815260200190815260200160002054905090565b60006020528060005260406000206000915090505481565b60008111610180576040517f08c379a000000000000000000000000000000000000000000000000000000000815260040161017790610550565b60405180910390fd5b806000803373ffffffffffffffffffffffffffffffffffffffff1673ffffffffffffffffffffffffffffffffffffffff168152602001908152602001600020541015610201576040517f08c379a00000000000000000000000000000000000000000000000000000000081526004016101f8906105bc565b60405180910390fd5b806000803373ffffffffffffffffffffffffffffffffffffffff1673ffffffffffffffffffffffffffffffffffffffff168152602001908152602001600020600082825461024f919061060b565b925050819055503373ffffffffffffffffffffffffffffffffffffffff166108fc829081150290604051600060405180830381858888f1935050505015801561029c573d6000803e3d6000fd5b503373ffffffffffffffffffffffffffffffffffffffff167f7fcf532c15f0a6db0bd6d0e038bea71d30d808c7d98cb3bf7268a95bf5081b65826040516102e391906103ef565b60405180910390a250565b60003411610331576040517f08c379a000000000000000000000000000000000000000000000000000000000815260040161032890610550565b60405180910390fd5b346000803373ffffffffffffffffffffffffffffffffffffffff1673ffffffffffffffffffffffffffffffffffffffff168152602001908152602001600020600082825461037f919061063f565b925050819055503373ffffffffffffffffffffffffffffffffffffffff167fe1fffcc4923d04b559f4d29a8bfc6cda04eb5b0d3c460751c2402c5c5cc9109c346040516103cc91906103ef565b60405180910390a2565b6000819050919050565b6103e9816103d6565b82525050565b600060208201905061040460008301846103e0565b92915050565b600080fd5b600073ffffffffffffffffffffffffffffffffffffffff82169050919050565b600061043a8261040f565b9050919050565b61044a8161042f565b811461045557600080fd5b50565b60008135905061046781610441565b92915050565b6000602082840312156104835761048261040a565b5b600061049184828501610458565b91505092915050565b6104a3816103d6565b81146104ae57600080fd5b50565b6000813590506104c08161049a565b92915050565b6000602082840312156104dc576104db61040a565b5b60006104ea848285016104b1565b91505092915050565b600082825260208201905092915050565b7f496e76616c696420416d6f756e74000000000000000000000000000000000000600082015250565b600061053a600e836104f3565b915061054582610504565b602082019050919050565b600060208201905081810360008301526105698161052d565b9050919050565b7f496e73756666696369656e742062616c616e63652e0000000000000000000000600082015250565b60006105a66015836104f3565b91506105b182610570565b602082019050919050565b600060208201905081810360008301526105d581610599565b9050919050565b7f4e487b7100000000000000000000000000000000000000000000000000000000600052601160045260246000fd5b6000610616826103d6565b9150610621836103d6565b925082821015610634576106336105dc565b5b828203905092915050565b600061064a826103d6565b9150610655836103d6565b9250827fffffffffffffffffffffffffffffffffffffffffffffffffffffffffffffffff0382111561068a576106896105dc565b5b82820190509291505056fea2646970667358221220565d66e6b374215f50bcb81bed8c67aa80ff666cbbff33fbcdc9cb2d0b81b47164736f6c634300080d0033",
  "immutableReferences": {},
  "source": "// SPDX-License-Identifier: MIT\r\npragma solidity ^0.8.0;\r\n\r\ncontract SkillsForgeContract {\r\n    mapping(address => uint) public balances;\r\n\r\n    event Deposit(address indexed account, uint256 amount);\r\n    event Withdrawal(address indexed account, uint256 amount);\r\n\r\n\r\n    function deposit() public payable {\r\n        require(msg.value > 0, \"Invalid Amount\");\r\n\r\n        balances[msg.sender] += msg.value;\r\n\r\n        emit Deposit(msg.sender, msg.value);\r\n    }\r\n\r\n    function withdraw(uint _amount) public {\r\n        require(_amount > 0, \"Invalid Amount\");\r\n        require(balances[msg.sender] >= _amount, \"Insufficient balance.\");\r\n        \r\n        balances[msg.sender] -= _amount;\r\n        payable(msg.sender).transfer(_amount);\r\n\r\n        emit Withdrawal(msg.sender, _amount);\r\n    }\r\n\r\n    function getBalance() public view returns (uint) {\r\n        return balances[msg.sender];\r\n    }\r\n\r\n}",
  "sourcePath": "C:\\Users\\akint\\Visual Studio code project\\skillsforge_assessment\\contracts\\SkillsForgeContract.sol",
  "compiler": {
    "name": "solc",
    "version": "0.8.13+commit.abaa5c0e.Emscripten.clang"
  },
  "schemaVersion": "3.4.14",
  "updatedAt": "2023-06-20T05:51:23.617Z",
  "networkType": "ethereum",
  "devdoc": {
    "kind": "dev",
    "methods": {},
    "version": 1
  },
  "userdoc": {
    "kind": "user",
    "methods": {},
    "version": 1
  }
}