{
  "contractName": "SkillsForgeContract",
  "abi": [
    {
      "anonymous": false,
      "inputs": [
        {
          "indexed": true,
          "internalType": "address",
          "name": "account",
          "type": "address"
        },
        {
          "indexed": false,
          "internalType": "uint256",
          "name": "amount",
          "type": "uint256"
        }
      ],
      "name": "Deposit",
      "type": "event"
    },
    {
      "anonymous": false,
      "inputs": [
        {
          "indexed": true,
          "internalType": "address",
          "name": "account",
          "type": "address"
        },
        {
          "indexed": false,
          "internalType": "uint256",
          "name": "amount",
          "type": "uint256"
        }
      ],
      "name": "Withdrawal",
      "type": "event"
    },
    {
      "inputs": [
        {
          "internalType": "address",
          "name": "",
          "type": "address"
        }
      ],
      "name": "balances",
      "outputs": [
        {
          "internalType": "uint256",
          "name": "",
          "type": "uint256"
        }
      ],
      "stateMutability": "view",
      "type": "function"
    },
    {
      "inputs": [],
      "name": "deposit",
      "outputs": [],
      "stateMutability": "payable",
      "type": "function"
    },
    {
      "inputs": [
        {
          "internalType": "uint256",
          "name": "_amount",
          "type": "uint256"
        }
      ],
      "name": "withdraw",
      "outputs": [],
      "stateMutability": "nonpayable",
      "type": "function"
    },
    {
      "inputs": [],
      "name": "getBalance",
      "outputs": [
        {
          "internalType": "uint256",
          "name": "",
          "type": "uint256"
        }
      ],
      "stateMutability": "view",
      "type": "function"
    }
  ],
  "bytecode": "0x608060405234801561001057600080fd5b50610352806100206000396000f3fe60806040526004361061003f5760003560e01c806312065fe01461004457806327e235e3146100745780632e1a7d4d146100a1578063d0e30db0146100c3575b600080fd5b34801561005057600080fd5b50336000908152602081905260409020545b60405190815260200160405180910390f35b34801561008057600080fd5b5061006261008f36600461028e565b60006020819052908152604090205481565b3480156100ad57600080fd5b506100c16100bc3660046102be565b6100cb565b005b6100c16101f2565b600081116101115760405162461bcd60e51b815260206004820152600e60248201526d125b9d985b1a5908105b5bdd5b9d60921b60448201526064015b60405180910390fd5b336000908152602081905260409020548111156101685760405162461bcd60e51b815260206004820152601560248201527424b739bab33334b1b4b2b73a103130b630b731b29760591b6044820152606401610108565b33600090815260208190526040812080548392906101879084906102ed565b9091555050604051339082156108fc029083906000818181858888f193505050501580156101b9573d6000803e3d6000fd5b5060405181815233907f7fcf532c15f0a6db0bd6d0e038bea71d30d808c7d98cb3bf7268a95bf5081b659060200160405180910390a250565b600034116102335760405162461bcd60e51b815260206004820152600e60248201526d125b9d985b1a5908105b5bdd5b9d60921b6044820152606401610108565b3360009081526020819052604081208054349290610252908490610304565b909155505060405134815233907fe1fffcc4923d04b559f4d29a8bfc6cda04eb5b0d3c460751c2402c5c5cc9109c9060200160405180910390a2565b6000602082840312156102a057600080fd5b81356001600160a01b03811681146102b757600080fd5b9392505050565b6000602082840312156102d057600080fd5b5035919050565b634e487b7160e01b600052601160045260246000fd5b6000828210156102ff576102ff6102d7565b500390565b60008219821115610317576103176102d7565b50019056fea264697066735822122085992437186bc6b98502e3e630534e68fc19e25564e073518887303682e7a23164736f6c634300080d0033",
  "immutableReferences": {},
  "source": "// SPDX-License-Identifier: MIT\r\npragma solidity ^0.8.0;\r\n\r\ncontract SkillsForgeContract {\r\n    mapping(address => uint) public balances;\r\n\r\n    event Deposit(address indexed account, uint256 amount);\r\n    event Withdrawal(address indexed account, uint256 amount);\r\n\r\n\r\n    function deposit() public payable {\r\n        require(msg.value > 0, \"Invalid Amount\");\r\n\r\n        balances[msg.sender] += msg.value;\r\n\r\n        emit Deposit(msg.sender, msg.value);\r\n    }\r\n\r\n    function withdraw(uint _amount) public {\r\n        require(_amount > 0, \"Invalid Amount\");\r\n        require(balances[msg.sender] >= _amount, \"Insufficient balance.\");\r\n        \r\n        balances[msg.sender] -= _amount;\r\n        payable(msg.sender).transfer(_amount);\r\n\r\n        emit Withdrawal(msg.sender, _amount);\r\n    }\r\n\r\n    function getBalance() public view returns (uint) {\r\n        return balances[msg.sender];\r\n    }\r\n\r\n}",
  "sourcePath": "C:\\Users\\akint\\Visual Studio code project\\skillsforge_assessment\\contracts\\SkillsForgeContract.sol",
  "compiler": {
    "name": "solc",
    "version": "0.8.13+commit.abaa5c0e.Emscripten.clang"
  },
  "schemaVersion": "3.4.14",
  "updatedAt": "2023-06-21T09:10:26.404Z",
  "devdoc": {
    "kind": "dev",
    "methods": {},
    "version": 1
  },
  "userdoc": {
    "kind": "user",
    "methods": {},
    "version": 1
  }
}